:100000000C9463000C948B000C948B000C948B006C
:100010000C948B000C948B000C948B000C94A70513
:100020000C948B000C948B000C948B000C948B0024
:100030000C948B000C948B000C948B000C948B0014
:100040000C9481060C948B000C944F060C9429069A
:100050000C948B000C948B000C948B000C948B00F4
:100060000C948B000C948B000000000024002700EF
:100070002A0000000008000201000003040700003D
:1000800000000000000000000000230026002900FE
:10009000010204081020408001020408102001021F
:1000A0000408102000000000250028002B00040494
:1000B0000404040404040202020202020303030310
:1000C00003030200100711241FBECFEFD8E0DEBFEC
:1000D000CDBF11E0A0E0B1E0EAEDF6E102C005908D
:1000E0000D92A03CB107D9F722E0A0ECB1E001C02D
:1000F0001D92AF38B207E1F710E0C3E6D0E004C0CC
:100100002197FE010E94650BC236D107C9F70E94F4
:100110005A070C946B0B0C940000AF92BF92CF92D5
:10012000DF92EF92FF920F931F93CF93DF936C01B7
:100130007B018B01040F151FEB015E01AE18BF0898
:10014000C017D10759F06991D601ED91FC9101904A
:10015000F081E02DC6010995892B79F7C501DF9162
:10016000CF911F910F91FF90EF90DF90CF90BF90B4
:10017000AF900895FC01538D448D252F30E0842FDE
:1001800090E0821B930B541710F0CF9608950197BF
:100190000895FC01918D828D981761F0A28DAE0FAC
:1001A000BF2FB11D5D968C91928D9F5F9F73928F33
:1001B00090E008958FEF9FEF0895FC01918D828D5F
:1001C000981731F0828DE80FF11D858D90E008952C
:1001D0008FEF9FEF0895FC01918D228D892F90E084
:1001E000805C9F4F821B91098F73992708958AED38
:1001F00091E00E94EB0021E0892B09F420E0822F9E
:10020000089580E090E0892B29F00E94F700811189
:100210000C9400000895FC01A48DA80FB92FB11D06
:10022000A35ABF4F2C91848D90E001968F7399272C
:10023000848FA689B7892C93A089B1898C9183700A
:1002400080648C93938D848D981306C00288F38903
:10025000E02D80818F7D80830895EF92FF920F9330
:100260001F93CF93DF93EC0181E0888F9B8D8C8D62
:1002700098131AC0E889F989808185FF15C09FB756
:10028000F894EE89FF896083E889F9898081837019
:10029000806480839FBF81E090E0DF91CF911F91C8
:1002A0000F91FF90EF900895F62E0B8D10E00F5FE9
:1002B0001F4F0F731127E02E8C8D8E110CC00FB6BF
:1002C00007FCFACFE889F989808185FFF5CFCE0157
:1002D0000E940B01F1CFEB8DEC0FFD2FF11DE35AC6
:1002E000FF4FF0829FB7F8940B8FEA89FB898081DA
:1002F0008062CFCFCF93DF93EC01888D8823B9F054
:10030000AA89BB89E889F9898C9185FD03C0808120
:1003100086FD0DC00FB607FCF7CF8C9185FFF2CF9D
:10032000808185FFEDCFCE010E940B01E9CFDF91E7
:10033000CF91089590E0FC01EE58FF4F2491FC010D
:10034000E057FF4F3491FC01E255FF4FE491EE235B
:10035000C9F0222339F0233001F1A8F4213019F13A
:10036000223029F1F0E0EE0FFF1FEC55FF4FA59171
:10037000B4918FB7F894EC91611126C030953E236B
:100380003C938FBF08952730A9F02830C9F024305E
:1003900049F7809180008F7D03C0809180008F7726
:1003A00080938000DFCF84B58F7784BDDBCF84B5A9
:1003B0008F7DFBCF8091B0008F778093B000D2CF3C
:1003C0008091B0008F7DF9CF3E2BDACFCF93DF93B2
:1003D00090E0FC01E057FF4F249182559F4FFC01B4
:1003E00084918823D1F090E0880F991FFC01E8598F
:1003F000FF4FA591B491FC01EC55FF4FC591D491ED
:1004000061110EC09FB7F8948C91E22FE0958E2376
:100410008C932881E223E8839FBFDF91CF910895D9
:100420008FB7F894EC91E22BEC938FBFF6CF8F92BD
:100430009F92AF92BF92CF92DF92EF92FF920F9373
:100440001F93CF938C0180910001863079F08F3F0C
:1004500009F44FC0CF911F910F91FF90EF90DF9063
:10046000CF90BF90AF909F908F900895E2ECF0E016
:10047000C491C7FDEFCF61E086E00E94E60148012C
:10048000B12CA12CCC23F1F0980150E040E0C23017
:1004900009F09EC048015A0160E970ED83E090E0E8
:1004A0000E94370B69017A0181E0C81AD108E1087E
:1004B000F10893E08FEFC816D104E104F10409F0CC
:1004C0000CF4DFC068E478EE81E090E0A5019401CF
:1004D0000E94370B69017A0181E0C81AD108E1084E
:1004E000F10894E0C111CDC085B5887F836085BDDA
:1004F00084C086E080930001E2ECF0E0C491CF3F3D
:1005000009F4A8CFC13021F150F0C23009F43EC047
:10051000C7FDA0CF61E086E00E94E601B5CF14BC24
:1005200015BC84B5826084BD85B5816085BDE4EB72
:10053000F0E0E491F0E0EE0FFF1FEC55FF4F8591E6
:100540009491E6E9F0E0E491E093CD01C0E093CF2F
:1005500010928000109281008091810088608093C9
:10056000810080918100816080938100E4EBF0E064
:10057000E491F0E0EE0FFF1FEC55FF4F8591949151
:10058000E6E9F0E0E491E093CC0175CF1092B00081
:100590001092B1008091B00082608093B000809191
:1005A000B10081608093B100E4EBF0E0E491F0E011
:1005B000EE0FFF1FEC55FF4F859194919093CB0167
:1005C0008093CA01E6E9F0E0E491E093C90153CFDA
:1005D00060E072E18AE790E00E94370B69017A01DE
:1005E00081E0C81AD108E108F108C13031F48091E6
:1005F0008100887F8160809381009801220F331FE2
:10060000AAEFB0E00E94560B28EE33E040E050E045
:100610000E94150BC13099F0C23019F1C1111ACFE7
:10062000C7BC2093D6013093D7014093D801509393
:10063000D90180916E00826080936E000BCFD092C2
:100640008900C09288002093D2013093D301409357
:10065000D4015093D50180916F00826080936F0028
:10066000F9CEC092B3002093CE013093CF014093D6
:10067000D0015093D101809170008260809370000E
:10068000E9CE8091B100887F892B8093B100B5CFEE
:100690003FB7F8948091C5019091C601A091C70120
:1006A000B091C80126B5A89B05C02F3F19F001964F
:1006B000A11DB11D3FBFBA2FA92F982F8827BC01BC
:1006C000CD01620F711D811D911D42E0660F771FE4
:1006D000881F991F4A95D1F708958F929F92AF92E4
:1006E000BF92CF92DF92EF92FF924B015C010E948A
:1006F00048036B017C010E9448036C197D098E0937
:100700009F09683E734081059105A8F321E0821A94
:100710009108A108B10888EEC80E83E0D81EE11C3C
:10072000F11C81149104A104B10429F7FF90EF900A
:10073000DF90CF90BF90AF909F908F9008950895D5
:1007400090E080E008958F929F92AF92BF920F93B6
:100750001F93CF93DF93CDB7DEB7A1970FB6F89471
:10076000DEBF0FBECDBF19A2423008F44AE08E01B1
:100770000F5D1F4F842E912CB12CA12CA50194014B
:100780000E94150BE62FB901CA01EA3044F5E05D7D
:10079000D801EE938D01232B242B252B79F790E0A4
:1007A00080E0109769F0FD0101900020E9F7319792
:1007B000AF014A1B5B0BBD0187E792E00E948D00F1
:1007C000A1960FB6F894DEBF0FBECDBFDF91CF91DB
:1007D0001F910F91BF90AF909F908F900895E95C0B
:1007E000D7CFFC0101900020E9F73197AF01481BFA
:1007F000590BBC0187E792E00C948D00CF93DF93F7
:10080000EC0160E08E810E949A0161E08E810E947D
:100810009A0160E08E810E949A018BE891E0019735
:10082000F1F7DF91CF910895CF92DF92EF92FF928F
:100830000F931F93CF93DF936C017C0187E0E80E49
:10084000F11CD0E0C0E0062F10E0B8010C2E02C071
:10085000759567950A94E2F76170F70181917F01C0
:100860000E949A012196C430D10579F7C601DF9123
:10087000CF911F910F91FF90EF90DF90CF900C944C
:10088000FE03CF92DF92EF92FF920F931F93CF93CD
:10089000DF93EC01F62E642F8C810E949A018D81EA
:1008A0008F3F19F060E00E949A010F2D10E08F85B4
:1008B00084FF25C06E0187E0C80ED11CF12CE12C0D
:1008C000B8010E2C02C0759567950A94E2F7617025
:1008D000F60181916F010E949A01FFEFEF1AFF0A62
:1008E00088E0E816F10461F7CE01DF91CF911F9106
:1008F0000F91FF90EF90DF90CF900C94FE03B80122
:1009000084E0759567958A95E1F7CE010E941404FD
:100910006F2DCE01DF91CF911F910F91FF90EF903E
:10092000DF90CF900C94140440E0682F87E792E0AA
:100930000C94410481E00E9494048BE39FE10197B1
:10094000F1F70895CF93DF93823029F490918602D6
:1009500098609093860280938A0210928B0280E4C2
:1009600080938C0280E180938D0280E580938E02DB
:1009700061E080917B020E94E60180917C028F3FC2
:1009800019F061E00E94E60161E080917D020E9421
:10099000E601C7E7D2E09E012757324080918602E8
:1009A00084FD0BC084E090E021962817390744F4B9
:1009B00061E08E810E94E601EECF88E090E0F4CF06
:1009C0008BE39DE00197F1F760E080917B020E944C
:1009D0009A0160E080917D020E949A0180917C02E0
:1009E0008F3F19F060E00E949A018091860284FD99
:1009F00034C063E087E792E00E941404CBE4D6E4BD
:100A0000CE010197F1F763E087E792E00E941404BA
:100A10002197F1F763E087E792E00E94140483E5F1
:100A200092E00197F1F762E087E792E00E941404F8
:100A30008091860280620E94940484E08093870201
:100A40008CE00E9494040E949A0482E080938802C1
:100A500086E0DF91CF910C94940480620E9494040C
:100A60008BE496E40197F1F78091860280620E9400
:100A7000940483E592E00197F1F780918602806209
:100A80000E949404D5CF90918A02691710F06FEFFD
:100A9000690FE62FF0E0E958FD4F9489890F8068CF
:100AA0000C94940441E00E94410481E090E0089598
:100AB000CF92DF92EF92FF926C01990FEE08FF0840
:100AC000F7FE16C041E06DE287E792E00E94410424
:100AD00066277727CB016C197D098E099F094AE0AB
:100AE0000E94A3030196FF90EF90DF90CF900895AE
:100AF0004AE0C701B601FF90EF90DF90CF900C94D1
:100B0000A3030F931F9390E0FC01E057FF4F649104
:100B1000FC01E255FF4FE491F0E0EE0FFF1FEA57B2
:100B2000FF4F8591949100E412E42FE030E0462FCE
:100B30000E94CB06611571058105910529F06F5F53
:100B40007F4F8F4F9F4F9F701F910F9108951F925E
:100B50000F920FB60F9211242F933F934F935F93F1
:100B60006F937F938F939F93AF93BF93EF93FF9375
:100B70008091CE019091CF01A091D001B091D1018F
:100B8000892B8A2B8B2BD1F19091C901E091CA015D
:100B9000F091CB018081892780838091CE01909153
:100BA000CF01A091D001B091D101181619061A06F3
:100BB0001B069CF48091CE019091CF01A091D001B1
:100BC000B091D1010197A109B1098093CE01909311
:100BD000CF01A093D001B093D101FF91EF91BF91CC
:100BE000AF919F918F917F916F915F914F913F91C5
:100BF0002F910F900FBE0F901F90189580910001BC
:100C0000E2ECF0E0E4919FEF90930001E13051F0CD
:100C100030F0E23069F060E00E949A01DECF10927D
:100C20006E00F9CF90916F009D7F90936F00F3CF8E
:100C3000909170009D7F9093700091E09093B00030
:100C40009091B100987F94609093B1001092B3009E
:100C5000E2CF1F920F920FB60F9211242F933F9362
:100C60004F935F936F937F938F939F93AF93BF93B4
:100C7000EF93FF938AED91E00E940B01FF91EF91BA
:100C8000BF91AF919F918F917F916F915F914F91A4
:100C90003F912F910F900FBE0F901F9018951F92AC
:100CA0000F920FB60F9211242F938F939F93EF9370
:100CB000FF93E091EA01F091EB018081E091F00176
:100CC000F091F10182FD1BC090818091F3018F5F53
:100CD0008F732091F401821741F0E091F301F0E06D
:100CE000E652FE4F958F8093F301FF91EF919F9114
:100CF0008F912F910F900FBE0F901F9018958081AC
:100D0000F4CF1F920F920FB60F9211242F933F939F
:100D10008F939F93AF93BF938091C1019091C20134
:100D2000A091C301B091C4013091C00123E0230F11
:100D30002D3758F50196A11DB11D2093C001809358
:100D4000C1019093C201A093C301B093C4018091EB
:100D5000C5019091C601A091C701B091C80101964B
:100D6000A11DB11D8093C5019093C601A093C70139
:100D7000B093C801BF91AF919F918F913F912F91F7
:100D80000F900FBE0F901F90189526E8230F029624
:100D9000A11DB11DD2CFCF92DF92EF92FF920F93A0
:100DA0001F93E82FF92F05C00150110921093109BE
:100DB00061F1908196239417B9F305C00150110990
:100DC0002109310911F1908196239413F7CFC12C99
:100DD000D12CE12CF12C0AC08FEFC81AD80AE80AEE
:100DE000F80A0C151D052E053F0579F08081862334
:100DF000841791F36C2D7D2D8E2D9F2D1F910F91BA
:100E0000FF90EF90DF90CF90089560E070E080E079
:100E100090E01F910F91FF90EF90DF90CF90089599
:100E2000EAEDF1E01382128288EE93E0A0E0B0E0F8
:100E300084839583A683B78385E091E09183808343
:100E400085EC90E09587848784EC90E0978786878F
:100E500080EC90E0918B808B81EC90E0938B828B87
:100E600082EC90E0958B848B86EC90E0978B868B60
:100E7000118E128E138E148EE7E7F2E01382128227
:100E800087E191E0918380838CE084838FEF858379
:100E90008BE0868385E0878384E0808783E0818799
:100EA00082E082871386148615861686178681E06F
:100EB0000C94A204789484B5826084BD84B581606A
:100EC00084BD85B5826085BD85B5816085BD809115
:100ED0006E00816080936E0010928100809181008D
:100EE0008260809381008091810081608093810085
:100EF000809180008160809380008091B100846047
:100F00008093B1008091B00081608093B0008091A7
:100F10007A00846080937A0080917A008260809366
:100F20007A0080917A00816080937A0080917A00C3
:100F3000806880937A001092C10082E00E94A2042F
:100F4000E091EA01F091EB0182E08083E091E6011B
:100F5000F091E7011082E091E801F091E9018FEC56
:100F600080831092F201E091EE01F091EF0186E0B2
:100F70008083E091EC01F091ED01808180618083BC
:100F8000E091EC01F091ED01808188608083E09137
:100F9000EC01F091ED01808180688083E091EC01AB
:100FA000F091ED0180818F7D808361E08AE00E9475
:100FB000E60160E089E00E94E60161E088E00E94CD
:100FC000E60160E087E00E94E60161E086E00E94C1
:100FD000E60160E084E00E9443058FE191E00E9419
:100FE000F10360ED77E080E090E00E946D030E94E5
:100FF0009A0460E080E00E94430587E291E00E944D
:10100000F10368EC70E080E090E00E946D0360E026
:1010100080E00E94430584E391E00E94F10368ECC4
:1010200070E080E090E00E946D0360E080E00E944C
:10103000430582E491E00E94F10368EC70E080E0F7
:1010400090E00E946D0360E080E00E94430581E52E
:1010500091E00E94F10368EC70E080E090E00E9473
:101060006D0360E080E00E94430581E691E00E940C
:10107000F10368EC70E080E090E00E946D030E9454
:101080009A0460E080E00E94430587E291E00E94BC
:10109000F10368EC70E080E090E00E946D0360E096
:1010A00080E00E94430584E391E00E94F10368EC34
:1010B00070E080E090E00E946D0360E080E00E94BC
:1010C000430582E491E00E94F10368EC70E080E067
:1010D00090E00E946D0360E080E00E94430581E59E
:1010E00091E00E94F10368EC70E080E090E00E94E3
:1010F0006D0360E080E00E94430581E691E00E947C
:10110000F10368EC70E080E090E00E946D030E94C3
:101110009A0460E080E00E94430587E291E00E942B
:10112000F10368EC70E080E090E00E946D0360E005
:1011300080E00E94430584E391E00E94F10368ECA3
:1011400070E080E090E00E946D0360E080E00E942B
:10115000430582E491E00E94F10368EC70E080E0D6
:1011600090E00E946D0360E080E00E94430581E50D
:1011700091E00E94F10368EC70E080E090E00E9452
:101180006D0360E080E00E94430581E691E00E94EB
:10119000F10368EC70E080E090E00E946D0360E095
:1011A00080E00E94430581E691E00E94F10368EC33
:1011B00070E080E090E00E946D030E949A0460E07D
:1011C00080E00E94430582E791E00E94F10361E024
:1011D00081E00E94430582E891E00E94F10364EC03
:1011E00079E080E090E00E946D030E949A0460E044
:1011F00080E00E9443058BE891E00E94F10361E0EA
:1012000080E00E94430589E991E00E94F10383E2B6
:1012100090E00197F1F78FE0882E912C93E2C92E90
:10122000D12C20E0A22E20E0B22E60E08AE00E94C5
:101230009A0160E088E00E949A01C4010197F1F7E9
:1012400061E08AE00E949A0168EE73E080E090E03D
:101250000E946D0361E088E00E949A01C601019737
:10126000F1F760E08AE00E949A0160E088E00E9465
:101270009A0189E00E9481052B0187E00E94810587
:10128000072E000C880B990B0E941C0A26E933E4F8
:101290004BE05DE30E94800A20E030E040E05FE345
:1012A0000E94800A0E94E4097B01B201550C880B60
:1012B000990B0E941C0A26E933E44BE05DE30E948F
:1012C000800A20E030E040E05FE30E94800A0E9454
:1012D000E409683271058CF4219664EF71E080E0D6
:1012E00090E00E946D0388EE93E00E94170268EE82
:1012F00073E080E090E00E946D030E949A0460E039
:1013000080E00E94430581EA91E00E94F10361E0E0
:1013100080E00E944305CE010E94580560EA7FE00C
:1013200080E090E00E946D030E949A0488E2E81633
:10133000F10494F40F5F1F4F64EF71E080E090E0E0
:101340000E946D0384EF91E00E94170264E670E052
:1013500080E090E00E946D0360E080E00E94430521
:1013600081EB91E00E94F10361E080E00E9443057F
:10137000C8010E94580560EA7FE080E090E00E948A
:101380006D0360E080E00E9443058BE891E00E94DD
:10139000F10361E080E00E944305CE01801B910BC8
:1013A0000E94580560EA7FE080E090E00E946D03B3
:1013B000A114B10409F439CF0E94F700882309F47D
:1013C00034CF0E94000031CF0E94EB096894B11124
:1013D0000C947A0A08950E945F0A88F09F5798F04B
:1013E000B92F9927B751B0F0E1F0660F771F881F2A
:1013F000991F1AF0BA95C9F714C0B13091F00E9444
:10140000790AB1E008950C94790A672F782F88271C
:10141000B85F39F0B93FCCF3869577956795B3956A
:10142000D9F73EF490958095709561957F4F8F4FD9
:101430009F4F0895E89409C097FB3EF490958095DE
:10144000709561957F4F8F4F9F4F9923A9F0F92F8A
:1014500096E9BB279395F695879577956795B79508
:10146000F111F8CFFAF4BB0F11F460FF1BC06F5FEE
:101470007F4F8F4F9F4F16C0882311F096E911C000
:10148000772321F09EE8872F762F05C0662371F021
:1014900096E8862F70E060E02AF09A95660F771F35
:1014A000881FDAF7880F9695879597F9089557FD65
:1014B0009058440F551F59F05F3F71F04795880FC2
:1014C00097FB991F61F09F3F79F087950895121659
:1014D00013061406551FF2CF4695F1DF08C0161605
:1014E00017061806991FF1CF8695710561050894B6
:1014F0000895E894BB2766277727CB0197F90895CD
:101500000E94930A0C94040B0E94F60A38F00E9481
:10151000FD0A20F0952311F00C94ED0A0C94F30AC7
:1015200011240C947A0A0E94570A70F3959FC1F314
:10153000950F50E0551F629FF001729FBB27F00D81
:10154000B11D639FAA27F00DB11DAA1F649F6627D6
:10155000B00DA11D661F829F2227B00DA11D621F25
:10156000739FB00DA11D621F839FA00D611D221FDF
:10157000749F3327A00D611D231F849F600D211DC3
:10158000822F762F6A2F11249F5750409AF0F1F046
:1015900088234AF0EE0FFF1FBB1F661F771F881FAF
:1015A00091505040A9F79E3F510580F00C94ED0AF0
:1015B0000C947A0A5F3FE4F3983ED4F386957795CE
:1015C0006795B795F795E7959F5FC1F7FE2B880F55
:1015D000911D9695879597F9089597F99F6780E8EB
:1015E00070E060E008959FEF80EC089500240A9475
:1015F0001616170618060906089500240A941216EE
:101600001306140605060895092E0394000C11F420
:10161000882352F0BB0F40F4BF2B11F460FF04C0CD
:101620006F5F7F4F8F4F9F4F0895A1E21A2EAA1B25
:10163000BB1BFD010DC0AA1FBB1FEE1FFF1FA21782
:10164000B307E407F50720F0A21BB30BE40BF50B7F
:10165000661F771F881F991F1A9469F76095709508
:10166000809590959B01AC01BD01CF010895052E99
:1016700097FB1EF400940E944E0B57FD07D00E946A
:10168000150B07FC03D04EF40C944E0B509540956F
:10169000309521953F4F4F4F5F4F0895909580951E
:1016A000709561957F4F8F4F9F4F0895A29FB00116
:1016B000B39FC001A39F700D811D1124911DB29F86
:1016C000700D811D1124911D0895EE0FFF1F0590CF
:0A16D000F491E02D0994F894FFCF87
:1016DA00FF000000002D018D00BA007A01EB00C95D
:1016EA0000DD000000000052058D00A0039F035793
:1016FA00656C636F6D6500506C6561736520776119
:10170A0069742E00506C6561736520776169742E67
:10171A002E00506C6561736520776169742E2E2ED8
:10172A0000506C6561736520776169742E2E2E2EC8
:10173A0000506C6561736520776169742E2E2E2EB8
:10174A002E0056697369746F7220436F756E7465E3
:10175A007200427920474F4B554C0050656F706CB0
:10176A006520696E736964650073746F72653A30D7
:10177A000050656F706C6520656E74657265643AB9
:10178A000050656F706C65206578697465643A000D
:00000001FF
